{
  "contractName": "PopBank",
  "abi": [
    {
      "constant": true,
      "inputs": [
        {
          "name": "",
          "type": "address"
        }
      ],
      "name": "_bankAccountAddresses",
      "outputs": [
        {
          "name": "accountSet",
          "type": "bool"
        },
        {
          "name": "accountNumber",
          "type": "uint32"
        }
      ],
      "payable": false,
      "stateMutability": "view",
      "type": "function",
      "signature": "0x06091ca0"
    },
    {
      "constant": true,
      "inputs": [
        {
          "name": "",
          "type": "address"
        }
      ],
      "name": "enrolled",
      "outputs": [
        {
          "name": "",
          "type": "bool"
        }
      ],
      "payable": false,
      "stateMutability": "view",
      "type": "function",
      "signature": "0x10eb0e0e"
    },
    {
      "constant": true,
      "inputs": [
        {
          "name": "",
          "type": "address"
        }
      ],
      "name": "balances",
      "outputs": [
        {
          "name": "",
          "type": "uint256"
        }
      ],
      "payable": false,
      "stateMutability": "view",
      "type": "function",
      "signature": "0x27e235e3"
    },
    {
      "constant": true,
      "inputs": [],
      "name": "_totalOwningBankAccounts",
      "outputs": [
        {
          "name": "",
          "type": "uint32"
        }
      ],
      "payable": false,
      "stateMutability": "view",
      "type": "function",
      "signature": "0x2ba57fc3"
    },
    {
      "constant": true,
      "inputs": [
        {
          "name": "",
          "type": "uint256"
        }
      ],
      "name": "_owningBankArray",
      "outputs": [
        {
          "name": "isBank",
          "type": "bool"
        },
        {
          "name": "id",
          "type": "uint256"
        },
        {
          "name": "balance",
          "type": "uint256"
        },
        {
          "name": "timeStamp",
          "type": "uint256"
        },
        {
          "name": "ownerAddress",
          "type": "address"
        }
      ],
      "payable": false,
      "stateMutability": "view",
      "type": "function",
      "signature": "0x39a9ff3b"
    },
    {
      "constant": true,
      "inputs": [
        {
          "name": "",
          "type": "address"
        }
      ],
      "name": "_owningBankAccountAddresses",
      "outputs": [
        {
          "name": "accountSet",
          "type": "bool"
        },
        {
          "name": "accountNumber",
          "type": "uint32"
        }
      ],
      "payable": false,
      "stateMutability": "view",
      "type": "function",
      "signature": "0x79547559"
    },
    {
      "constant": true,
      "inputs": [],
      "name": "_totalPublicBankAccounts",
      "outputs": [
        {
          "name": "",
          "type": "uint32"
        }
      ],
      "payable": false,
      "stateMutability": "view",
      "type": "function",
      "signature": "0x7e623deb"
    },
    {
      "constant": true,
      "inputs": [],
      "name": "loanNumber",
      "outputs": [
        {
          "name": "",
          "type": "uint256"
        }
      ],
      "payable": false,
      "stateMutability": "view",
      "type": "function",
      "signature": "0x825c1471"
    },
    {
      "constant": true,
      "inputs": [
        {
          "name": "",
          "type": "uint256"
        }
      ],
      "name": "_bankAccountsArray",
      "outputs": [
        {
          "name": "isPremium",
          "type": "bool"
        },
        {
          "name": "accountLock",
          "type": "bool"
        },
        {
          "name": "Id",
          "type": "uint256"
        },
        {
          "name": "interestRate",
          "type": "uint256"
        },
        {
          "name": "balance",
          "type": "uint256"
        },
        {
          "name": "paidFee",
          "type": "bool"
        },
        {
          "name": "timeStamp",
          "type": "uint256"
        },
        {
          "name": "owner",
          "type": "address"
        }
      ],
      "payable": false,
      "stateMutability": "view",
      "type": "function",
      "signature": "0x8c20a1f1"
    },
    {
      "constant": true,
      "inputs": [],
      "name": "accountId",
      "outputs": [
        {
          "name": "",
          "type": "uint256"
        }
      ],
      "payable": false,
      "stateMutability": "view",
      "type": "function",
      "signature": "0x9cfd7cff"
    },
    {
      "constant": true,
      "inputs": [
        {
          "name": "",
          "type": "uint256"
        }
      ],
      "name": "loanDecisions",
      "outputs": [
        {
          "name": "loanNumber",
          "type": "uint256"
        },
        {
          "name": "loanAmount",
          "type": "uint256"
        },
        {
          "name": "loanExpiration",
          "type": "uint256"
        },
        {
          "name": "lendingInterest",
          "type": "uint256"
        },
        {
          "name": "amountToRepay",
          "type": "uint256"
        },
        {
          "name": "lendingAddress",
          "type": "address"
        },
        {
          "name": "loanDecision",
          "type": "bool"
        },
        {
          "name": "active",
          "type": "bool"
        },
        {
          "name": "isCollateral",
          "type": "bool"
        },
        {
          "name": "state",
          "type": "uint8"
        }
      ],
      "payable": false,
      "stateMutability": "view",
      "type": "function",
      "signature": "0xa7280212"
    },
    {
      "constant": true,
      "inputs": [],
      "name": "_owner",
      "outputs": [
        {
          "name": "",
          "type": "address"
        }
      ],
      "payable": false,
      "stateMutability": "view",
      "type": "function",
      "signature": "0xb2bdfa7b"
    },
    {
      "constant": true,
      "inputs": [
        {
          "name": "",
          "type": "uint256"
        }
      ],
      "name": "requestedLoans",
      "outputs": [
        {
          "name": "loanNr",
          "type": "uint256"
        },
        {
          "name": "loanAmount",
          "type": "uint256"
        },
        {
          "name": "loanDuration",
          "type": "uint256"
        },
        {
          "name": "lendingAddress",
          "type": "address"
        },
        {
          "name": "state",
          "type": "uint8"
        }
      ],
      "payable": false,
      "stateMutability": "view",
      "type": "function",
      "signature": "0xb74aac4d"
    },
    {
      "constant": true,
      "inputs": [],
      "name": "contractAddress",
      "outputs": [
        {
          "name": "",
          "type": "address"
        }
      ],
      "payable": false,
      "stateMutability": "view",
      "type": "function",
      "signature": "0xf6b4dfb4"
    },
    {
      "inputs": [],
      "payable": false,
      "stateMutability": "nonpayable",
      "type": "constructor",
      "signature": "constructor"
    },
    {
      "payable": true,
      "stateMutability": "payable",
      "type": "fallback"
    },
    {
      "anonymous": false,
      "inputs": [
        {
          "indexed": true,
          "name": "accountAddress",
          "type": "address"
        }
      ],
      "name": "LogPremiumAccountOpened",
      "type": "event",
      "signature": "0x882e0bd3233ae4c14709085fc2a3da397028b45b8d5af7b8422b3ae6fd9773b2"
    },
    {
      "anonymous": false,
      "inputs": [
        {
          "indexed": true,
          "name": "accountAddress",
          "type": "address"
        }
      ],
      "name": "LogBasicAccountOpened",
      "type": "event",
      "signature": "0xa2040f92d581eedc744e7ae964e21666c19f879db83962d9e90dbb436f06975b"
    },
    {
      "anonymous": false,
      "inputs": [
        {
          "indexed": true,
          "name": "accountAddress",
          "type": "address"
        },
        {
          "indexed": false,
          "name": "amountDeposited",
          "type": "uint256"
        }
      ],
      "name": "LogDepositMade",
      "type": "event",
      "signature": "0xa8126f7572bb1fdeae5b5aa9ec126438b91f658a07873f009d041ae690f3a193"
    },
    {
      "anonymous": false,
      "inputs": [
        {
          "indexed": true,
          "name": "accountAddress",
          "type": "address"
        },
        {
          "indexed": false,
          "name": "withdrawalAmount",
          "type": "uint256"
        },
        {
          "indexed": false,
          "name": "newBalance",
          "type": "uint256"
        }
      ],
      "name": "LogWithdrawal",
      "type": "event",
      "signature": "0xf9226daf630542048a23086c6af599511aac100ec8f532793cc9697d061bed7e"
    },
    {
      "anonymous": false,
      "inputs": [
        {
          "indexed": true,
          "name": "accountAddressFrom",
          "type": "address"
        },
        {
          "indexed": true,
          "name": "accountAddressTo",
          "type": "address"
        },
        {
          "indexed": false,
          "name": "moneySent",
          "type": "uint256"
        },
        {
          "indexed": false,
          "name": "newBalance",
          "type": "uint256"
        }
      ],
      "name": "LogInternalMoneyTransfer",
      "type": "event",
      "signature": "0xabdb5770163c769afc248cccb0a001e1edcca2815a47b630f69179033002c0b8"
    },
    {
      "constant": false,
      "inputs": [
        {
          "name": "_loanAmount",
          "type": "uint256"
        },
        {
          "name": "_loanDuration",
          "type": "uint256"
        }
      ],
      "name": "loanRequest",
      "outputs": [
        {
          "name": "requestSubmitted",
          "type": "bool"
        }
      ],
      "payable": false,
      "stateMutability": "nonpayable",
      "type": "function",
      "signature": "0x4b9db021"
    },
    {
      "constant": false,
      "inputs": [
        {
          "name": "_loanNumber",
          "type": "uint256"
        },
        {
          "name": "_approved",
          "type": "bool"
        },
        {
          "name": "interestRate",
          "type": "uint256"
        },
        {
          "name": "_isCollateral",
          "type": "bool"
        }
      ],
      "name": "loanDecision",
      "outputs": [
        {
          "name": "success",
          "type": "bool"
        }
      ],
      "payable": true,
      "stateMutability": "payable",
      "type": "function",
      "signature": "0xbdb976fc"
    },
    {
      "constant": false,
      "inputs": [
        {
          "name": "_loanNumber",
          "type": "uint256"
        }
      ],
      "name": "repayLoan",
      "outputs": [],
      "payable": false,
      "stateMutability": "nonpayable",
      "type": "function",
      "signature": "0xab7b1c89"
    },
    {
      "constant": false,
      "inputs": [],
      "name": "openBasicAccount",
      "outputs": [
        {
          "name": "newBankAccountNumber",
          "type": "uint32"
        }
      ],
      "payable": false,
      "stateMutability": "nonpayable",
      "type": "function",
      "signature": "0xe9cb0581"
    },
    {
      "constant": false,
      "inputs": [],
      "name": "openPremiumAccount",
      "outputs": [
        {
          "name": "newBankAccountNumber",
          "type": "uint32"
        }
      ],
      "payable": true,
      "stateMutability": "payable",
      "type": "function",
      "signature": "0x239bbb1b"
    },
    {
      "constant": false,
      "inputs": [],
      "name": "depositAmount",
      "outputs": [
        {
          "name": "accountBalance",
          "type": "uint256"
        }
      ],
      "payable": true,
      "stateMutability": "payable",
      "type": "function",
      "signature": "0x419759f5"
    },
    {
      "constant": false,
      "inputs": [
        {
          "name": "amountToWithdraw",
          "type": "uint256"
        }
      ],
      "name": "withdrawAmount",
      "outputs": [
        {
          "name": "accountBalance",
          "type": "uint256"
        }
      ],
      "payable": true,
      "stateMutability": "payable",
      "type": "function",
      "signature": "0x0562b9f7"
    },
    {
      "constant": false,
      "inputs": [
        {
          "name": "bankAccountId",
          "type": "uint256"
        }
      ],
      "name": "payoutInterest",
      "outputs": [
        {
          "name": "amountPaid",
          "type": "uint256"
        }
      ],
      "payable": true,
      "stateMutability": "payable",
      "type": "function",
      "signature": "0xe743ad5b"
    },
    {
      "constant": false,
      "inputs": [
        {
          "name": "etherAmount",
          "type": "uint256"
        },
        {
          "name": "toAccount",
          "type": "address"
        }
      ],
      "name": "internalTransfer",
      "outputs": [
        {
          "name": "accountBalance",
          "type": "uint256"
        }
      ],
      "payable": true,
      "stateMutability": "payable",
      "type": "function",
      "signature": "0x1ece18ea"
    },
    {
      "constant": false,
      "inputs": [
        {
          "name": "etherAmount",
          "type": "uint256"
        },
        {
          "name": "toAccount",
          "type": "address"
        }
      ],
      "name": "externalTransfer",
      "outputs": [
        {
          "name": "accountBalance",
          "type": "uint256"
        }
      ],
      "payable": true,
      "stateMutability": "payable",
      "type": "function",
      "signature": "0x665d8d89"
    },
    {
      "constant": true,
      "inputs": [],
      "name": "checkContractBalance",
      "outputs": [
        {
          "name": "contractBalance",
          "type": "uint256"
        }
      ],
      "payable": false,
      "stateMutability": "view",
      "type": "function",
      "signature": "0x50312c9e"
    },
    {
      "constant": true,
      "inputs": [],
      "name": "checkPersonalAccountBalance",
      "outputs": [
        {
          "name": "accountBalance",
          "type": "uint256"
        }
      ],
      "payable": false,
      "stateMutability": "view",
      "type": "function",
      "signature": "0xb1027515"
    },
    {
      "constant": true,
      "inputs": [
        {
          "name": "_id",
          "type": "uint256"
        }
      ],
      "name": "checkSpecificAccountBalance",
      "outputs": [
        {
          "name": "accountBalance",
          "type": "uint256"
        }
      ],
      "payable": false,
      "stateMutability": "view",
      "type": "function",
      "signature": "0xc4f1feee"
    },
    {
      "constant": true,
      "inputs": [],
      "name": "checkOwnerBankAccountBalance",
      "outputs": [
        {
          "name": "accountBalance",
          "type": "uint256"
        }
      ],
      "payable": false,
      "stateMutability": "view",
      "type": "function",
      "signature": "0xfd615196"
    },
    {
      "constant": false,
      "inputs": [
        {
          "name": "Id",
          "type": "uint256"
        }
      ],
      "name": "closeBankAccount",
      "outputs": [
        {
          "name": "success",
          "type": "bool"
        }
      ],
      "payable": false,
      "stateMutability": "nonpayable",
      "type": "function",
      "signature": "0xab9998e6"
    },
    {
      "constant": false,
      "inputs": [
        {
          "name": "Id",
          "type": "uint256"
        },
        {
          "name": "thisAddress",
          "type": "address"
        },
        {
          "name": "newInterest",
          "type": "uint256"
        }
      ],
      "name": "changeAccountInterest",
      "outputs": [
        {
          "name": "newAccountInterestRate",
          "type": "uint256"
        }
      ],
      "payable": false,
      "stateMutability": "nonpayable",
      "type": "function",
      "signature": "0xbbd15a59"
    },
    {
      "constant": false,
      "inputs": [
        {
          "name": "Id",
          "type": "uint256"
        },
        {
          "name": "thisAddress",
          "type": "address"
        }
      ],
      "name": "lockAccount",
      "outputs": [
        {
          "name": "isLocked",
          "type": "bool"
        }
      ],
      "payable": false,
      "stateMutability": "nonpayable",
      "type": "function",
      "signature": "0x09ac55ac"
    },
    {
      "constant": false,
      "inputs": [],
      "name": "killContract",
      "outputs": [
        {
          "name": "dead",
          "type": "bool"
        }
      ],
      "payable": true,
      "stateMutability": "payable",
      "type": "function",
      "signature": "0x1c02708d"
    }
  ],
  "bytecode": "0x60806040526000600a60006101000a81548163ffffffff021916908363ffffffff1602179055506000600a60046101000a81548163ffffffff021916908363ffffffff16021790555034801561005457600080fd5b5033600660006101000a81548173ffffffffffffffffffffffffffffffffffffffff021916908373ffffffffffffffffffffffffffffffffffffffff160217905550600c60a0604051908101604052806001151581526020016000815260200160008152602001428152602001600660009054906101000a900473ffffffffffffffffffffffffffffffffffffffff1673ffffffffffffffffffffffffffffffffffffffff168152509080600181540180825580915050906001820390600052602060002090600502016000909192909190915060008201518160000160006101000a81548160ff02191690831515021790555060208201518160010155604082015181600201556060820151816003015560808201518160040160006101000a81548173ffffffffffffffffffffffffffffffffffffffff021916908373ffffffffffffffffffffffffffffffffffffffff1602179055505050506001600260003373ffffffffffffffffffffffffffffffffffffffff1673ffffffffffffffffffffffffffffffffffffffff16815260200190815260200160002060000160006101000a81548160ff0219169083151502179055506000600260003373ffffffffffffffffffffffffffffffffffffffff1673ffffffffffffffffffffffffffffffffffffffff16815260200190815260200160002060000160016101000a81548163ffffffff021916908363ffffffff160217905550600a600481819054906101000a900463ffffffff168092919060010191906101000a81548163ffffffff021916908363ffffffff1602179055505030600760006101000a81548173ffffffffffffffffffffffffffffffffffffffff021916908373ffffffffffffffffffffffffffffffffffffffff160217905550612af4806102f86000396000f3fe608060405260043610610190576000357c0100000000000000000000000000000000000000000000000000000000900480630562b9f7146101a457806306091ca0146101e657806309ac55ac1461026257806310eb0e0e146102d55780631c02708d1461033e5780631ece18ea14610360578063239bbb1b146103c257806327e235e3146103ec5780632ba57fc31461045157806339a9ff3b14610488578063419759f5146105235780634b9db0211461054157806350312c9e1461059e578063665d8d89146105c9578063795475591461062b5780637e623deb146106a7578063825c1471146106de5780638c20a1f1146107095780639cfd7cff146107c1578063a7280212146107ec578063ab7b1c89146108c0578063ab9998e6146108fb578063b10275151461094e578063b2bdfa7b14610979578063b74aac4d146109d0578063bbd15a5914610a75578063bdb976fc14610aee578063c4f1feee14610b56578063e743ad5b14610ba5578063e9cb058114610be7578063f6b4dfb414610c1e578063fd61519614610c75575b6000803690501415156101a257600080fd5b005b6101d0600480360360208110156101ba57600080fd5b8101908080359060200190929190505050610ca0565b6040518082815260200191505060405180910390f35b3480156101f257600080fd5b506102356004803603602081101561020957600080fd5b81019080803573ffffffffffffffffffffffffffffffffffffffff169060200190929190505050610df9565b60405180831515151581526020018263ffffffff1663ffffffff1681526020019250505060405180910390f35b34801561026e57600080fd5b506102bb6004803603604081101561028557600080fd5b8101908080359060200190929190803573ffffffffffffffffffffffffffffffffffffffff169060200190929190505050610e3a565b604051808215151515815260200191505060405180910390f35b3480156102e157600080fd5b50610324600480360360208110156102f857600080fd5b81019080803573ffffffffffffffffffffffffffffffffffffffff169060200190929190505050610f8e565b604051808215151515815260200191505060405180910390f35b610346610fae565b604051808215151515815260200191505060405180910390f35b6103ac6004803603604081101561037657600080fd5b8101908080359060200190929190803573ffffffffffffffffffffffffffffffffffffffff169060200190929190505050611047565b6040518082815260200191505060405180910390f35b6103ca611257565b604051808263ffffffff1663ffffffff16815260200191505060405180910390f35b3480156103f857600080fd5b5061043b6004803603602081101561040f57600080fd5b81019080803573ffffffffffffffffffffffffffffffffffffffff169060200190929190505050611645565b6040518082815260200191505060405180910390f35b34801561045d57600080fd5b5061046661165d565b604051808263ffffffff1663ffffffff16815260200191505060405180910390f35b34801561049457600080fd5b506104c1600480360360208110156104ab57600080fd5b8101908080359060200190929190505050611673565b60405180861515151581526020018581526020018481526020018381526020018273ffffffffffffffffffffffffffffffffffffffff1673ffffffffffffffffffffffffffffffffffffffff1681526020019550505050505060405180910390f35b61052b6116e5565b6040518082815260200191505060405180910390f35b34801561054d57600080fd5b506105846004803603604081101561056457600080fd5b8101908080359060200190929190803590602001909291905050506117fb565b604051808215151515815260200191505060405180910390f35b3480156105aa57600080fd5b506105b3611905565b6040518082815260200191505060405180910390f35b610615600480360360408110156105df57600080fd5b8101908080359060200190929190803573ffffffffffffffffffffffffffffffffffffffff169060200190929190505050611924565b6040518082815260200191505060405180910390f35b34801561063757600080fd5b5061067a6004803603602081101561064e57600080fd5b81019080803573ffffffffffffffffffffffffffffffffffffffff169060200190929190505050611a5c565b60405180831515151581526020018263ffffffff1663ffffffff1681526020019250505060405180910390f35b3480156106b357600080fd5b506106bc611a9d565b604051808263ffffffff1663ffffffff16815260200191505060405180910390f35b3480156106ea57600080fd5b506106f3611ab3565b6040518082815260200191505060405180910390f35b34801561071557600080fd5b506107426004803603602081101561072c57600080fd5b8101908080359060200190929190505050611ab9565b604051808915151515815260200188151515158152602001878152602001868152602001858152602001841515151581526020018381526020018273ffffffffffffffffffffffffffffffffffffffff1673ffffffffffffffffffffffffffffffffffffffff1681526020019850505050505050505060405180910390f35b3480156107cd57600080fd5b506107d6611b57565b6040518082815260200191505060405180910390f35b3480156107f857600080fd5b506108256004803603602081101561080f57600080fd5b8101908080359060200190929190505050611b5d565b604051808b81526020018a81526020018981526020018881526020018781526020018673ffffffffffffffffffffffffffffffffffffffff1673ffffffffffffffffffffffffffffffffffffffff1681526020018515151515815260200184151515158152602001831515151581526020018260038111156108a357fe5b60ff1681526020019a505050505050505050505060405180910390f35b3480156108cc57600080fd5b506108f9600480360360208110156108e357600080fd5b8101908080359060200190929190505050611c05565b005b34801561090757600080fd5b506109346004803603602081101561091e57600080fd5b8101908080359060200190929190505050611de0565b604051808215151515815260200191505060405180910390f35b34801561095a57600080fd5b5061096361209f565b6040518082815260200191505060405180910390f35b34801561098557600080fd5b5061098e612124565b604051808273ffffffffffffffffffffffffffffffffffffffff1673ffffffffffffffffffffffffffffffffffffffff16815260200191505060405180910390f35b3480156109dc57600080fd5b50610a09600480360360208110156109f357600080fd5b810190808035906020019092919050505061214a565b604051808681526020018581526020018481526020018373ffffffffffffffffffffffffffffffffffffffff1673ffffffffffffffffffffffffffffffffffffffff168152602001826003811115610a5d57fe5b60ff1681526020019550505050505060405180910390f35b348015610a8157600080fd5b50610ad860048036036060811015610a9857600080fd5b8101908080359060200190929190803573ffffffffffffffffffffffffffffffffffffffff169060200190929190803590602001909291905050506121ad565b6040518082815260200191505060405180910390f35b610b3c60048036036080811015610b0457600080fd5b81019080803590602001909291908035151590602001909291908035906020019092919080351515906020019092919050505061239f565b604051808215151515815260200191505060405180910390f35b348015610b6257600080fd5b50610b8f60048036036020811015610b7957600080fd5b81019080803590602001909291905050506125c4565b6040518082815260200191505060405180910390f35b610bd160048036036020811015610bbb57600080fd5b81019080803590602001909291905050506125ee565b6040518082815260200191505060405180910390f35b348015610bf357600080fd5b50610bfc6126e2565b604051808263ffffffff1663ffffffff16815260200191505060405180910390f35b348015610c2a57600080fd5b50610c336129fb565b604051808273ffffffffffffffffffffffffffffffffffffffff1673ffffffffffffffffffffffffffffffffffffffff16815260200191505060405180910390f35b348015610c8157600080fd5b50610c8a612a21565b6040518082815260200191505060405180910390f35b600080600260003373ffffffffffffffffffffffffffffffffffffffff1673ffffffffffffffffffffffffffffffffffffffff16815260200190815260200160002060000160019054906101000a900463ffffffff16905082600b8263ffffffff16815481101515610d0e57fe5b90600052602060002090600702016003015410151515610d96576040517f08c379a000000000000000000000000000000000000000000000000000000000815260040180806020018281038252601b8152602001807f796f7520646f6e2774206861766520656e6f7567682066756e6473000000000081525060200191505060405180910390fd5b82600b8263ffffffff16815481101515610dac57fe5b906000526020600020906007020160030160008282540392505081905550600b8163ffffffff16815481101515610ddf57fe5b906000526020600020906007020160030154915050919050565b60026020528060005260406000206000915090508060000160009054906101000a900460ff16908060000160019054906101000a900463ffffffff16905082565b60008173ffffffffffffffffffffffffffffffffffffffff16600b84815481101515610e6257fe5b906000526020600020906007020160060160009054906101000a900473ffffffffffffffffffffffffffffffffffffffff1673ffffffffffffffffffffffffffffffffffffffff16141515610f1f576040517f08c379a000000000000000000000000000000000000000000000000000000000815260040180806020018281038252601f8152602001807f496420616e64206f776e65724164647265737320646f6e2774206d617463680081525060200191505060405180910390fd5b6001600b84815481101515610f3057fe5b906000526020600020906007020160000160016101000a81548160ff021916908315150217905550600b83815481101515610f6757fe5b906000526020600020906007020160000160019054906101000a900460ff16905092915050565b60016020528060005260406000206000915054906101000a900460ff1681565b6000600660009054906101000a900473ffffffffffffffffffffffffffffffffffffffff1673ffffffffffffffffffffffffffffffffffffffff163373ffffffffffffffffffffffffffffffffffffffff1614151561100c57600080fd5b600660009054906101000a900473ffffffffffffffffffffffffffffffffffffffff1673ffffffffffffffffffffffffffffffffffffffff16ff5b600080600260003373ffffffffffffffffffffffffffffffffffffffff1673ffffffffffffffffffffffffffffffffffffffff16815260200190815260200160002060000160019054906101000a900463ffffffff1690506000600260008573ffffffffffffffffffffffffffffffffffffffff1673ffffffffffffffffffffffffffffffffffffffff16815260200190815260200160002060000160019054906101000a900463ffffffff16905084600b8363ffffffff1681548110151561110c57fe5b9060005260206000209060070201600301541015151561112b57600080fd5b84600b8363ffffffff1681548110151561114157fe5b90600052602060002090600702016003016000828254039250508190555084600b8263ffffffff1681548110151561117557fe5b9060005260206000209060070201600301600082825401925050819055508373ffffffffffffffffffffffffffffffffffffffff163373ffffffffffffffffffffffffffffffffffffffff167fabdb5770163c769afc248cccb0a001e1edcca2815a47b630f69179033002c0b887600b8663ffffffff168154811015156111f857fe5b906000526020600020906007020160030154604051808381526020018281526020019250505060405180910390a3600b8263ffffffff1681548110151561123b57fe5b9060005260206000209060070201600301549250505092915050565b6000670de0b6b3a7640000341415156112fe576040517f08c379a00000000000000000000000000000000000000000000000000000000081526004018080602001828103825260268152602001807f54686520636f7374206f662061207072656d69756d206163636f756e7420697381526020017f203120455448000000000000000000000000000000000000000000000000000081525060400191505060405180910390fd5b60001515600260003373ffffffffffffffffffffffffffffffffffffffff1673ffffffffffffffffffffffffffffffffffffffff16815260200190815260200160002060000160009054906101000a900460ff16151514151561136057600080fd5b600a60009054906101000a900463ffffffff169050600b610100604051908101604052806001151581526020016000151581526020018363ffffffff16815260200160048152602001600081526020016001151581526020014281526020013373ffffffffffffffffffffffffffffffffffffffff168152509080600181540180825580915050906001820390600052602060002090600702016000909192909190915060008201518160000160006101000a81548160ff02191690831515021790555060208201518160000160016101000a81548160ff02191690831515021790555060408201518160010155606082015181600201556080820151816003015560a08201518160040160006101000a81548160ff02191690831515021790555060c0820151816005015560e08201518160060160006101000a81548173ffffffffffffffffffffffffffffffffffffffff021916908373ffffffffffffffffffffffffffffffffffffffff1602179055505050506001600260003373ffffffffffffffffffffffffffffffffffffffff1673ffffffffffffffffffffffffffffffffffffffff16815260200190815260200160002060000160006101000a81548160ff02191690831515021790555080600260003373ffffffffffffffffffffffffffffffffffffffff1673ffffffffffffffffffffffffffffffffffffffff16815260200190815260200160002060000160016101000a81548163ffffffff021916908363ffffffff16021790555034600c60008154811015156115a357fe5b906000526020600020906005020160020160008282540192505081905550600a600081819054906101000a900463ffffffff168092919060010191906101000a81548163ffffffff021916908363ffffffff160217905550503373ffffffffffffffffffffffffffffffffffffffff167f882e0bd3233ae4c14709085fc2a3da397028b45b8d5af7b8422b3ae6fd9773b260405160405180910390a280905090565b60006020528060005260406000206000915090505481565b600a60049054906101000a900463ffffffff1681565b600c8181548110151561168257fe5b90600052602060002090600502016000915090508060000160009054906101000a900460ff16908060010154908060020154908060030154908060040160009054906101000a900473ffffffffffffffffffffffffffffffffffffffff16905085565b600080341115156116f557600080fd5b6000600260003373ffffffffffffffffffffffffffffffffffffffff1673ffffffffffffffffffffffffffffffffffffffff16815260200190815260200160002060000160019054906101000a900463ffffffff16905034600b8263ffffffff1681548110151561176257fe5b9060005260206000209060070201600301600082825401925050819055503373ffffffffffffffffffffffffffffffffffffffff167fa8126f7572bb1fdeae5b5aa9ec126438b91f658a07873f009d041ae690f3a193346040518082815260200191505060405180910390a2600b8163ffffffff168154811015156117e357fe5b90600052602060002090600702016003015491505090565b600060016009540160098190555060a06040519081016040528060095481526020018481526020018381526020013373ffffffffffffffffffffffffffffffffffffffff1681526020016000600381111561185257fe5b81525060046000600954815260200190815260200160002060008201518160000155602082015181600101556040820151816002015560608201518160030160006101000a81548173ffffffffffffffffffffffffffffffffffffffff021916908373ffffffffffffffffffffffffffffffffffffffff16021790555060808201518160030160146101000a81548160ff021916908360038111156118f357fe5b02179055509050506001905092915050565b60003073ffffffffffffffffffffffffffffffffffffffff1631905090565b600080600260003373ffffffffffffffffffffffffffffffffffffffff1673ffffffffffffffffffffffffffffffffffffffff16815260200190815260200160002060000160019054906101000a900463ffffffff16905083600b8263ffffffff1681548110151561199257fe5b906000526020600020906007020160030154101515156119b157600080fd5b8273ffffffffffffffffffffffffffffffffffffffff166108fc859081150290604051600060405180830381858888f193505050501580156119f7573d6000803e3d6000fd5b5083600b8263ffffffff16815481101515611a0e57fe5b906000526020600020906007020160030160008282540392505081905550600b8163ffffffff16815481101515611a4157fe5b90600052602060002090600702016003015491505092915050565b60036020528060005260406000206000915090508060000160009054906101000a900460ff16908060000160019054906101000a900463ffffffff16905082565b600a60009054906101000a900463ffffffff1681565b60095481565b600b81815481101515611ac857fe5b90600052602060002090600702016000915090508060000160009054906101000a900460ff16908060000160019054906101000a900460ff16908060010154908060020154908060030154908060040160009054906101000a900460ff16908060050154908060060160009054906101000a900473ffffffffffffffffffffffffffffffffffffffff16905088565b60085481565b60056020528060005260406000206000915090508060000154908060010154908060020154908060030154908060040154908060050160009054906101000a900473ffffffffffffffffffffffffffffffffffffffff16908060050160149054906101000a900460ff16908060050160159054906101000a900460ff16908060050160169054906101000a900460ff16908060050160179054906101000a900460ff1690508a565b600660009054906101000a900473ffffffffffffffffffffffffffffffffffffffff1673ffffffffffffffffffffffffffffffffffffffff163373ffffffffffffffffffffffffffffffffffffffff16141515611c6157600080fd5b60016005600083815260200190815260200160002060050160156101000a81548160ff02191690831515021790551515611c9a57600080fd5b60056000828152602001908152602001600020600201544210151515611cbf57600080fd5b60646005600083815260200190815260200160002060030154600560008481526020019081526020016000206001015402811515611cf957fe5b046000806005600085815260200190815260200160002060050160009054906101000a900473ffffffffffffffffffffffffffffffffffffffff1673ffffffffffffffffffffffffffffffffffffffff1673ffffffffffffffffffffffffffffffffffffffff1681526020019081526020016000206000828254039250508190555060056000828152602001908152602001600020600101546000803073ffffffffffffffffffffffffffffffffffffffff1673ffffffffffffffffffffffffffffffffffffffff1681526020019081526020016000206000828254019250508190555050565b600081600260003373ffffffffffffffffffffffffffffffffffffffff1673ffffffffffffffffffffffffffffffffffffffff16815260200190815260200160002060000160019054906101000a900463ffffffff1663ffffffff16141515611eb1576040517f08c379a00000000000000000000000000000000000000000000000000000000081526004018080602001828103825260108152602001807f494420646f65736e2774206d617463680000000000000000000000000000000081525060200191505060405180910390fd5b6000600260003373ffffffffffffffffffffffffffffffffffffffff1673ffffffffffffffffffffffffffffffffffffffff16815260200190815260200160002060000160019054906101000a900463ffffffff1690506000600b8263ffffffff16815481101515611f1f57fe5b90600052602060002090600702016003015490506000811115611f84573373ffffffffffffffffffffffffffffffffffffffff166108fc829081150290604051600060405180830381858888f19350505050158015611f82573d6000803e3d6000fd5b505b600b84815481101515611f9357fe5b9060005260206000209060070201600080820160006101000a81549060ff02191690556000820160016101000a81549060ff02191690556001820160009055600282016000905560038201600090556004820160006101000a81549060ff021916905560058201600090556006820160006101000a81549073ffffffffffffffffffffffffffffffffffffffff02191690555050600260003373ffffffffffffffffffffffffffffffffffffffff1673ffffffffffffffffffffffffffffffffffffffff168152602001908152602001600020600080820160006101000a81549060ff02191690556000820160016101000a81549063ffffffff02191690555050600192505050919050565b600080600260003373ffffffffffffffffffffffffffffffffffffffff1673ffffffffffffffffffffffffffffffffffffffff16815260200190815260200160002060000160019054906101000a900463ffffffff169050600b8163ffffffff1681548110151561210c57fe5b90600052602060002090600702016003015491505090565b600660009054906101000a900473ffffffffffffffffffffffffffffffffffffffff1681565b60046020528060005260406000206000915090508060000154908060010154908060020154908060030160009054906101000a900473ffffffffffffffffffffffffffffffffffffffff16908060030160149054906101000a900460ff16905085565b60008273ffffffffffffffffffffffffffffffffffffffff16600b858154811015156121d557fe5b906000526020600020906007020160060160009054906101000a900473ffffffffffffffffffffffffffffffffffffffff1673ffffffffffffffffffffffffffffffffffffffff16141515612292576040517f08c379a000000000000000000000000000000000000000000000000000000000815260040180806020018281038252601f8152602001807f496420616e64206f776e65724164647265737320646f6e2774206d617463680081525060200191505060405180910390fd5b81600b858154811015156122a257fe5b90600052602060002090600702016002015414151515612350576040517f08c379a00000000000000000000000000000000000000000000000000000000081526004018080602001828103825260278152602001807f696e746572657374206d75737420626520646966666572656e742066726f6d2081526020017f63757272656e740000000000000000000000000000000000000000000000000081525060400191505060405180910390fd5b81600b8581548110151561236057fe5b906000526020600020906007020160020181905550600b8481548110151561238457fe5b90600052602060002090600702016002015490509392505050565b60006001935083156125835760026005600087815260200190815260200160002060050160176101000a81548160ff021916908360038111156123de57fe5b0217905550826005600087815260200190815260200160002060030181905550600460008681526020019081526020016000206001015460056000878152602001908152602001600020600101819055506004600086815260200190815260200160002060030160009054906101000a900473ffffffffffffffffffffffffffffffffffffffff166005600087815260200190815260200160002060050160006101000a81548173ffffffffffffffffffffffffffffffffffffffff021916908373ffffffffffffffffffffffffffffffffffffffff160217905550836005600087815260200190815260200160002060050160146101000a81548160ff021916908315150217905550836005600087815260200190815260200160002060050160156101000a81548160ff021916908315150217905550816005600087815260200190815260200160002060050160166101000a81548160ff021916908315150217905550426001600460008881526020019081526020016000206002015402016005600087815260200190815260200160002060020181905550600190506125bc565b60016005600087815260200190815260200160002060050160176101000a81548160ff021916908360038111156125b657fe5b02179055505b949350505050565b6000600b828154811015156125d557fe5b9060005260206000209060070201600301549050919050565b600080600b8381548110151561260057fe5b90600052602060002090600702016001015490506000600b8281548110151561262557fe5b90600052602060002090600702016002015490506000600b8381548110151561264a57fe5b9060005260206000209060070201600301549050606482820281151561266c57fe5b04600b8481548110151561267c57fe5b90600052602060002090600702016003016000828254019250508190555060648282028115156126a857fe5b04600c60008154811015156126b957fe5b906000526020600020906005020160020160008282540392505081905550819350505050919050565b6000801515600260003373ffffffffffffffffffffffffffffffffffffffff1673ffffffffffffffffffffffffffffffffffffffff16815260200190815260200160002060000160009054906101000a900460ff16151514151561274557600080fd5b600a60009054906101000a900463ffffffff169050600b610100604051908101604052806000151581526020016000151581526020018363ffffffff16815260200160008152602001600081526020016000151581526020014281526020013373ffffffffffffffffffffffffffffffffffffffff168152509080600181540180825580915050906001820390600052602060002090600702016000909192909190915060008201518160000160006101000a81548160ff02191690831515021790555060208201518160000160016101000a81548160ff02191690831515021790555060408201518160010155606082015181600201556080820151816003015560a08201518160040160006101000a81548160ff02191690831515021790555060c0820151816005015560e08201518160060160006101000a81548173ffffffffffffffffffffffffffffffffffffffff021916908373ffffffffffffffffffffffffffffffffffffffff1602179055505050506001600260003373ffffffffffffffffffffffffffffffffffffffff1673ffffffffffffffffffffffffffffffffffffffff16815260200190815260200160002060000160006101000a81548160ff02191690831515021790555080600260003373ffffffffffffffffffffffffffffffffffffffff1673ffffffffffffffffffffffffffffffffffffffff16815260200190815260200160002060000160016101000a81548163ffffffff021916908363ffffffff160217905550600a600081819054906101000a900463ffffffff168092919060010191906101000a81548163ffffffff021916908363ffffffff160217905550503373ffffffffffffffffffffffffffffffffffffffff167fa2040f92d581eedc744e7ae964e21666c19f879db83962d9e90dbb436f06975b60405160405180910390a280905090565b600760009054906101000a900473ffffffffffffffffffffffffffffffffffffffff1681565b60008060036000600660009054906101000a900473ffffffffffffffffffffffffffffffffffffffff1673ffffffffffffffffffffffffffffffffffffffff1673ffffffffffffffffffffffffffffffffffffffff16815260200190815260200160002060000160019054906101000a900463ffffffff169050600c8163ffffffff16815481101515612ab057fe5b9060005260206000209060050201600201549150509056fea165627a7a7230582015844748cd77e67a663c047aca56fb6067313f5ec7c51a5b06be152618daee720029",
  "source": "pragma solidity ^0.5.0;\n\n\ncontract PopBank {\n\n\n    // BITALIA BANK S.r.l.\n\n    ///*Notes:\n    // - Fixa identitet via Uportlandia? KYC plus riskbedmning etc. Mste ha ett kreditscore om vi ska kunna ha bankverksamhet.\n    // - Erbjuda boln eller andra typer av collateral loans?\n    // - Fixa basic-konto utan rnta.\n    // - Jmfr rntor mot andra banker.\n    // - Vilket problem r det vi lser och varfr gra detta p blockkedjan?\n    // - Fixa s det funkar ven med Bitcoin (RSK dvs)\n    // - Stablecoins och hedga genom BTC-terminen som snart slpps enligt Isac\n    // - Gra detta utan banktillstnd och lta Ethereum eller liknande st bakom detta\n    // - Betalkort (kolla hur bitrefill gjort etc.). Kanske fr brja med prepaid cards, men sen ska vi kunna erbjuda kreditkort\n    ///*\n\n    //\n    // State variables\n    //\n    mapping (address => uint) public balances;\n    mapping (address => bool) public enrolled;\n    mapping(address => BankAccountAddress) public _bankAccountAddresses;\n    mapping(address => OwningBankAddress) public _owningBankAccountAddresses;\n    mapping(uint => RequestLoan) public requestedLoans;\n    mapping(uint => LoanDecision) public loanDecisions;\n\n\n    /* Let's make sure everyone knows who owns the bank. Use the appropriate keyword for this*/\n    address payable public _owner;\n    address payable public contractAddress;\n    uint public accountId;\n    uint public loanNumber;\n    uint32 public _totalPublicBankAccounts = 0;\n    uint32 public _totalOwningBankAccounts = 0;\n    AccountDetails[] public _bankAccountsArray;\n    OwningBankAccounts[] public _owningBankArray;\n\n\n\n    //\n    // Events - publicize actions to external listeners\n    //\n    event LogPremiumAccountOpened(address indexed accountAddress);\n    event LogBasicAccountOpened(address indexed accountAddress);\n    event LogDepositMade(address indexed accountAddress, uint amountDeposited);\n    event LogWithdrawal(address indexed accountAddress, uint withdrawalAmount, uint newBalance);\n    event LogInternalMoneyTransfer(address indexed accountAddressFrom, address indexed accountAddressTo, uint moneySent, uint newBalance);\n\n\n    //\n    // Functions\n    //\n    //Skulle kunna ppna upp 4-5 gande konton som alla hller pengar fr olika syften. Ett konto fr rnta p sparkonto.\n    //...ett annat fr att skta utbetalningar/inlning/utlning/vrigt etc.\n    constructor() public {\n        /* Set the owner to the creator of this contract */\n        _owner = msg.sender;\n        _owningBankArray.push(OwningBankAccounts({\n                isBank: true,\n                id: 0,\n                timeStamp: now,\n                balance: 0,\n                ownerAddress: _owner\n            }\n            ));\n        _bankAccountAddresses[msg.sender].accountSet = true;\n        _bankAccountAddresses[msg.sender].accountNumber = 0;\n        _totalOwningBankAccounts++;\n        contractAddress = address(this);\n    }\n\n    struct OwningBankAccounts {\n        bool isBank;\n        uint id;\n        uint balance;\n        uint timeStamp;\n        address payable ownerAddress;\n    }\n\n    struct AccountDetails {\n        bool isPremium;\n        bool accountLock;\n        uint Id;\n        uint interestRate;\n        uint balance;\n        bool paidFee;\n        uint timeStamp;\n        address payable owner;\n    }\n\n    struct BankAccountAddress {\n        bool accountSet;\n        uint32 accountNumber; // accountNumber member is used to index the bank accounts array\n    }\n\n    struct OwningBankAddress {\n        bool accountSet;\n        uint32 accountNumber; // accountNumber member is used to index the bank accounts array\n    }\n\n\n    struct RequestLoan {\n        uint loanNr;\n        uint loanAmount;\n        uint loanDuration;\n        address payable lendingAddress;\n        LoanState state;\n    }\n\n\n    struct LoanDecision {\n        uint loanNumber;\n        uint loanAmount;\n        uint loanExpiration;\n        uint lendingInterest;\n        uint amountToRepay;\n        address payable lendingAddress;\n        bool loanDecision;\n        bool active;\n        bool isCollateral;\n        LoanState state;\n    }\n\n    enum LoanState { Pending, Negative, Active, Completed }\n\n\n\n\n    ////\n    //LOAN FUNCTIONS//\n    ////\n    function loanRequest(uint _loanAmount, uint _loanDuration) public returns(bool requestSubmitted) {\n        loanNumber = loanNumber + 1;\n        requestedLoans[loanNumber] = RequestLoan({loanNr: loanNumber, loanAmount: _loanAmount, loanDuration: _loanDuration, lendingAddress: msg.sender, state: LoanState.Pending});\n        return true;\n    }\n\n\n    function loanDecision(uint _loanNumber, bool _approved, uint interestRate, bool _isCollateral) public payable returns (bool success) {\n        if(_approved = true) {\n        loanDecisions[_loanNumber].state = LoanState.Active;\n        loanDecisions[_loanNumber].lendingInterest = interestRate;\n        loanDecisions[_loanNumber].loanAmount = requestedLoans[_loanNumber].loanAmount;\n        loanDecisions[_loanNumber].lendingAddress = requestedLoans[_loanNumber].lendingAddress;\n        loanDecisions[_loanNumber].loanDecision = _approved;\n        loanDecisions[_loanNumber].active = _approved;\n        loanDecisions[_loanNumber].isCollateral = _isCollateral;\n\n\n        //Var noga med att tiden stmmer\n        loanDecisions[_loanNumber].loanExpiration = (requestedLoans[_loanNumber].loanDuration * 1) + now;\n        //activateLoan(_loanNumber);\n        return true;\n        }\n            else {\n                loanDecisions[_loanNumber].state = LoanState.Negative;\n            }\n    }\n\n\n        //Try to make it internal/private\n        //Make it eventually automatic with Ethereum Alarm Clock or similar.\n        function activateLoan(uint _loanNumber) internal returns(uint) {\n            balances[loanDecisions[_loanNumber].lendingAddress] += loanDecisions[_loanNumber].loanAmount;\n            loanDecisions[_loanNumber].lendingAddress.transfer(loanDecisions[_loanNumber].loanAmount);\n            loanDecisions[_loanNumber].active = true;\n            loanDecisions[_loanNumber].amountToRepay = (loanDecisions[_loanNumber].loanAmount * loanDecisions[_loanNumber].lendingInterest /100);\n            return balances[loanDecisions[_loanNumber].lendingAddress];\n        }\n\n\n        //Make it eventually automatic with Ethereum Alarm Clock or similar.\n        //Calculate the interest rate\n        function repayLoan(uint _loanNumber) public {\n            require(msg.sender == _owner);\n            require(loanDecisions[_loanNumber].active = true);\n            require(now >= loanDecisions[_loanNumber].loanExpiration);\n            balances[loanDecisions[_loanNumber].lendingAddress] -=\n            (loanDecisions[_loanNumber].loanAmount * loanDecisions[_loanNumber].lendingInterest /100);\n            balances[address(this)] += loanDecisions[_loanNumber].loanAmount;\n        }\n\n\n        ////\n        //ACCOUNT FUNCTIONS//\n        ////\n        function openBasicAccount() public returns (uint32 newBankAccountNumber) {\n            require(_bankAccountAddresses[msg.sender].accountSet == false); //har inte redan ett account\n            newBankAccountNumber = _totalPublicBankAccounts;\n\n            _bankAccountsArray.push(AccountDetails({\n                    isPremium: false,\n                    accountLock: false,\n                    Id: newBankAccountNumber,\n                    interestRate: 0,\n                    paidFee: false,\n                    timeStamp: now,\n                    balance: 0,\n                    owner: msg.sender\n                }\n                ));\n\n                // Add the new account\n            _bankAccountAddresses[msg.sender].accountSet = true;\n            _bankAccountAddresses[msg.sender].accountNumber = newBankAccountNumber;\n\n            _totalPublicBankAccounts++;\n\n            emit LogBasicAccountOpened(msg.sender);\n            return newBankAccountNumber;\n        }\n\n\n        function openPremiumAccount() public payable returns (uint32 newBankAccountNumber) {\n            require(msg.value == 1000000000000000000, \"The cost of a premium account is 1 ETH\");\n            require(_bankAccountAddresses[msg.sender].accountSet == false); //har inte redan ett account\n\n        // Assign the new bank account number\n            newBankAccountNumber = _totalPublicBankAccounts;\n\n        // Add new bank account to the array\n            _bankAccountsArray.push(AccountDetails({\n                    isPremium: true,\n                    accountLock: false,\n                    Id: newBankAccountNumber,\n                    interestRate: 4,\n                    paidFee: true,\n                    timeStamp: now,\n                    balance: 0,\n                    owner: msg.sender\n                }\n                ));\n\n            // Add the new account\n            _bankAccountAddresses[msg.sender].accountSet = true;\n            _bankAccountAddresses[msg.sender].accountNumber = newBankAccountNumber;\n\n             _owningBankArray[0].balance += msg.value;\n\n            // Move to the next bank account\n            _totalPublicBankAccounts++;\n\n            emit LogPremiumAccountOpened(msg.sender);\n            return newBankAccountNumber;\n        }\n\n\n\n    ////\n    //PAYMENT FUNCTIONS//\n    ////\n    function depositAmount() public payable returns (uint accountBalance) {\n        require(msg.value > 0);\n        uint32 accountNumber_ = _bankAccountAddresses[msg.sender].accountNumber;\n        _bankAccountsArray[accountNumber_].balance += msg.value;\n        emit LogDepositMade(msg.sender, msg.value);\n        return _bankAccountsArray[accountNumber_].balance;\n    }\n\n\n    function withdrawAmount(uint amountToWithdraw) public payable returns (uint accountBalance) {\n        uint32 accountNumber_ = _bankAccountAddresses[msg.sender].accountNumber;\n        require (_bankAccountsArray[accountNumber_].balance >= amountToWithdraw, \"you don't have enough funds\");\n        _bankAccountsArray[accountNumber_].balance -= amountToWithdraw;\n        return _bankAccountsArray[accountNumber_].balance;\n    }\n\n\n    //omkalkylera rntan varje r eller dylikt\n    //gr det omjligt att betala ut rnta mer n en gng per r\n    //hur rknar man rnta p insatt belopp om beloppet ndras ofta under ett r?\n    function payoutInterest(uint bankAccountId) public payable returns (uint amountPaid) {\n        uint accountNumber_ = _bankAccountsArray[bankAccountId].Id;\n        uint interestAmount = _bankAccountsArray[accountNumber_].interestRate;\n        uint accountBalance = _bankAccountsArray[accountNumber_].balance;\n        //uint amountToPay = (accountBalance * interestAmount / 100);\n        //payoutToAddress.transfer(amountToPay); //push payment direkt till adress\n        _bankAccountsArray[accountNumber_].balance += (accountBalance * interestAmount / 100);\n         _owningBankArray[0].balance -= (accountBalance * interestAmount / 100);\n        //balances[owner] -= (accountBalance * interestAmount / 100);\n        return (interestAmount);\n    }\n\n\n        /*Send ethers to another account internally */\n    function internalTransfer(uint etherAmount, address toAccount) payable public returns (uint accountBalance) {\n        uint32 accountNumber_ = _bankAccountAddresses[msg.sender].accountNumber;\n        uint32 sendTo = _bankAccountAddresses[toAccount].accountNumber;\n        require(_bankAccountsArray[accountNumber_].balance >= etherAmount);\n        _bankAccountsArray[accountNumber_].balance -= etherAmount;\n        _bankAccountsArray[sendTo].balance += etherAmount;\n        emit LogInternalMoneyTransfer(msg.sender, toAccount, etherAmount, _bankAccountsArray[accountNumber_].balance);\n        return _bankAccountsArray[accountNumber_].balance;\n    }\n\n\n\n    //make an external push payment\n    function externalTransfer(uint etherAmount, address payable toAccount) payable public returns (uint accountBalance) {\n        uint32 accountNumber_ = _bankAccountAddresses[msg.sender].accountNumber;\n        require(_bankAccountsArray[accountNumber_].balance >= etherAmount);\n\n        //Vi gr betalningen, sen drar vi pengar frn deras konto.\n        toAccount.transfer(etherAmount);\n        _bankAccountsArray[accountNumber_].balance -= etherAmount;\n        return _bankAccountsArray[accountNumber_].balance;\n    }\n\n\n\n    ////\n    //BALANCE FUNCTIONS//\n    ////\n    function checkContractBalance() public view returns (uint contractBalance) {\n        return address(this).balance;\n    }\n\n\n    function checkPersonalAccountBalance() public view returns (uint accountBalance) {\n        uint32 accountNumber_ = _bankAccountAddresses[msg.sender].accountNumber;\n        return _bankAccountsArray[accountNumber_].balance;\n    }\n\n\n    function checkSpecificAccountBalance(uint _id) public view returns (uint accountBalance) {\n        return _bankAccountsArray[_id].balance;\n    }\n\n\n    function checkOwnerBankAccountBalance() public view returns (uint accountBalance) {\n        uint32 accountNumber_ = _owningBankAccountAddresses[_owner].accountNumber;\n        return _owningBankArray[accountNumber_].balance;\n    }\n\n\n\n    //get your money back and delete account from array. GDPR?\n    function closeBankAccount(uint Id) public returns (bool success) {\n        require( _bankAccountAddresses[msg.sender].accountNumber == Id, \"ID doesn't match\");\n        uint32 accountNumber_ = _bankAccountAddresses[msg.sender].accountNumber;\n        uint balanceLeft = _bankAccountsArray[accountNumber_].balance;\n        if (balanceLeft > 0) {\n            msg.sender.transfer(balanceLeft);\n        }\n        delete _bankAccountsArray[Id];\n        delete _bankAccountAddresses[msg.sender];\n        return true;\n    }\n\n\n    //ADMIN FUNCTIONS//\n    function changeAccountInterest(uint Id, address thisAddress, uint newInterest) public returns (uint newAccountInterestRate) {\n        require(_bankAccountsArray[Id].owner == thisAddress, \"Id and ownerAddress don't match\");\n        require(_bankAccountsArray[Id].interestRate != newInterest, \"interest must be different from current\");\n        _bankAccountsArray[Id].interestRate = newInterest;\n        return(_bankAccountsArray[Id].interestRate);\n    }\n\n\n    function lockAccount(uint Id, address thisAddress) public returns (bool isLocked) {\n        require(_bankAccountsArray[Id].owner == thisAddress, \"Id and ownerAddress don't match\");\n        _bankAccountsArray[Id].accountLock = true;\n        return _bankAccountsArray[Id].accountLock;\n    }\n\n\n    function killContract() public payable returns(bool dead) {\n        require(msg.sender == _owner);\n        selfdestruct(_owner);\n        return(true);\n    }\n\n\n    // Fallback function - Called if other functions don't match call or\n    // sent ether without data\n    // Typically, called when invalid data is sent\n    // Added so ether sent to this contract is reverted if the contract fails\n    // otherwise, the sender's money is transferred to contract\n    function()external payable {\n        require(msg.data.length == 0);\n    }\n}\n",
  "sourcePath": "/Users/filipsundgren/Desktop/PopBank/contracts/PopBank.sol",
  "compiler": {
    "name": "solc",
    "version": "0.5.1+commit.c8a2cb62.Emscripten.clang"
  },
  "schemaVersion": "3.0.0-beta.1",
  "updatedAt": "2019-07-17T17:04:37.642Z",
  "devdoc": {
    "methods": {}
  },
  "userdoc": {
    "methods": {
      "checkContractBalance()": {
        "notice": "/"
      },
      "depositAmount()": {
        "notice": "/"
      },
      "loanRequest(uint256,uint256)": {
        "notice": "/"
      },
      "openBasicAccount()": {
        "notice": "/"
      }
    }
  }
}